{
  "contractName": "HelloWorld",
  "abi": [
    {
      "inputs": [
        {
          "internalType": "string",
          "name": "_message",
          "type": "string"
        }
      ],
      "stateMutability": "nonpayable",
      "type": "constructor"
    },
    {
      "inputs": [],
      "name": "message",
      "outputs": [
        {
          "internalType": "string",
          "name": "",
          "type": "string"
        }
      ],
      "stateMutability": "view",
      "type": "function",
      "constant": true
    },
    {
      "inputs": [],
      "name": "hello",
      "outputs": [
        {
          "internalType": "string",
          "name": "",
          "type": "string"
        }
      ],
      "stateMutability": "view",
      "type": "function",
      "constant": true
    },
    {
      "inputs": [
        {
          "internalType": "string",
          "name": "_message",
          "type": "string"
        }
      ],
      "name": "setMessage",
      "outputs": [],
      "stateMutability": "payable",
      "type": "function",
      "payable": true
    }
  ],
  "bytecode": "0x608060405234801561001057600080fd5b506040516106f33803806106f383398101604081905261002f9161006a565b600061003b82826101bc565b5050600180546001600160a01b0319163317905561027b565b634e487b7160e01b600052604160045260246000fd5b6000602080838503121561007d57600080fd5b82516001600160401b038082111561009457600080fd5b818501915085601f8301126100a857600080fd5b8151818111156100ba576100ba610054565b604051601f8201601f19908116603f011681019083821181831017156100e2576100e2610054565b8160405282815288868487010111156100fa57600080fd5b600093505b8284101561011c57848401860151818501870152928501926100ff565b600086848301015280965050505050505092915050565b600181811c9082168061014757607f821691505b60208210810361016757634e487b7160e01b600052602260045260246000fd5b50919050565b601f8211156101b757600081815260208120601f850160051c810160208610156101945750805b601f850160051c820191505b818110156101b3578281556001016101a0565b5050505b505050565b81516001600160401b038111156101d5576101d5610054565b6101e9816101e38454610133565b8461016d565b602080601f83116001811461021e57600084156102065750858301515b600019600386901b1c1916600185901b1785556101b3565b600085815260208120601f198616915b8281101561024d5788860151825594840194600190910190840161022e565b508582101561026b5787850151600019600388901b60f8161c191681555b5050505050600190811b01905550565b6104698061028a6000396000f3fe6080604052600436106100345760003560e01c806319ff1d2114610039578063368b877214610064578063e21f37ce14610079575b600080fd5b34801561004557600080fd5b5061004e61008e565b60405161005b91906101d5565b60405180910390f35b610077610072366004610239565b610120565b005b34801561008557600080fd5b5061004e610147565b60606000805461009d906102ea565b80601f01602080910402602001604051908101604052809291908181526020018280546100c9906102ea565b80156101165780601f106100eb57610100808354040283529160200191610116565b820191906000526020600020905b8154815290600101906020018083116100f957829003601f168201915b5050505050905090565b6001546001600160a01b0316331461013757600080fd5b60006101438282610373565b5050565b60008054610154906102ea565b80601f0160208091040260200160405190810160405280929190818152602001828054610180906102ea565b80156101cd5780601f106101a2576101008083540402835291602001916101cd565b820191906000526020600020905b8154815290600101906020018083116101b057829003601f168201915b505050505081565b600060208083528351808285015260005b81811015610202578581018301518582016040015282016101e6565b506000604082860101526040601f19601f8301168501019250505092915050565b634e487b7160e01b600052604160045260246000fd5b60006020828403121561024b57600080fd5b813567ffffffffffffffff8082111561026357600080fd5b818401915084601f83011261027757600080fd5b81358181111561028957610289610223565b604051601f8201601f19908116603f011681019083821181831017156102b1576102b1610223565b816040528281528760208487010111156102ca57600080fd5b826020860160208301376000928101602001929092525095945050505050565b600181811c908216806102fe57607f821691505b60208210810361031e57634e487b7160e01b600052602260045260246000fd5b50919050565b601f82111561036e57600081815260208120601f850160051c8101602086101561034b5750805b601f850160051c820191505b8181101561036a57828155600101610357565b5050505b505050565b815167ffffffffffffffff81111561038d5761038d610223565b6103a18161039b84546102ea565b84610324565b602080601f8311600181146103d657600084156103be5750858301515b600019600386901b1c1916600185901b17855561036a565b600085815260208120601f198616915b82811015610405578886015182559484019460019091019084016103e6565b50858210156104235787850151600019600388901b60f8161c191681555b5050505050600190811b0190555056fea2646970667358221220757873bcc511f69f1771a0272c0b3acc50a21a795272077914f386fd2f47cdb564736f6c63430008110033",
  "immutableReferences": {},
  "source": "pragma solidity 0.8.17;\n\ncontract HelloWorld {\n\n    string public message;\n    address owner;\n    \n    constructor (string memory _message){\n        message = _message;\n        owner = msg.sender;\n    }\n\n    function hello() public view returns (string memory) {\n        return message;\n    }\n\n    function setMessage (string memory _message) public payable{\n        require(msg.sender == owner);\n        message = _message; \n    }\n}",
  "sourcePath": "/Users/aishwaryanaidu/Desktop/Projects/truffle-smart-contract/contracts/HelloWorld.sol",
  "compiler": {
    "name": "solc",
    "version": "0.8.17+commit.8df45f5f.Emscripten.clang"
  },
  "schemaVersion": "3.4.10",
  "updatedAt": "2022-10-19T21:58:56.927Z",
  "networkType": "ethereum",
  "devdoc": {
    "kind": "dev",
    "methods": {},
    "version": 1
  },
  "userdoc": {
    "kind": "user",
    "methods": {},
    "version": 1
  }
}